:100000000C945D000C9485000C9485000C94850084
:100010000C9485000C9485000C9485000C9485004C
:100020000C9485000C9485000C9485000C9485003C
:100030000C9485000C9485000C9485000C9485002C
:100040000C94A4020C9485000C9414030C94EE02FE
:100050000C9485000C9485000C9485000C9485000C
:100060000C9485000C94850000000008000201003B
:100070000003040700000000000000000000000072
:10008000250028002B0000000000240027002A0083
:10009000040404040404040402020202020203032E
:1000A0000303030301020408102040800102040836
:1000B0001020010204081020290411241FBECFEFD4
:1000C000D8E0DEBFCDBF11E0A0E0B1E0ECEBF8E09E
:1000D00002C005900D92A631B107D9F721E0A6E143
:1000E000B1E001C01D92AC3BB207E1F710E0CDE5F5
:1000F000D0E004C02197FE010E945604CC35D10700
:10010000C9F70E9446030C945C040C940000EDEACD
:10011000F0E02491E9E9F0E08491882399F090E0FF
:10012000880F991FFC01EA57FF4FA591B491FC017C
:10013000E458FF4F859194918FB7F894EC91E22B9E
:10014000EC938FBF0895E1E7F0E02491EDEAF0E051
:100150009491E9E9F0E0E491EE23C9F0222339F02B
:10016000233001F1A8F4213019F1223029F1F0E017
:10017000EE0FFF1FE458FF4FA591B4912FB7F894ED
:10018000EC91811126C090959E239C932FBF0895DA
:100190002730A9F02830C9F0243049F72091800099
:1001A0002F7D03C0209180002F7720938000DFCF28
:1001B00024B52F7724BDDBCF24B52F7DFBCF209135
:1001C000B0002F772093B000D2CF2091B0002F7DC8
:1001D000F9CF9E2BDACFCF93DF93EC010E948700FB
:1001E000209729F480E0DF91CF910C94A300CF3FBA
:1001F000D10511F481E0F7CFE1E7F0E0E491E330DD
:1002000029F140F4E130B1F0E230D9F0C038D10545
:100210008CF7E8CFE73021F1E83051F1E430B1F765
:1002200080918000806280938000D0938B00C09387
:100230008A0004C084B5806884BDC7BDDF91CF91BA
:10024000089584B5806284BDC8BDF8CF80918000D8
:10025000806880938000D0938900C0938800EECF9F
:100260008091B00080688093B000C093B300E6CF67
:100270008091B00080628093B000C093B400DECF64
:100280003FB7F8948091B8019091B901A091BA015B
:10029000B091BB0126B5A89B05C02F3F19F0019670
:1002A000A11DB11D3FBFBA2FA92F982F8827BC01D0
:1002B000CD01620F711D811D911D42E0660F771FF8
:1002C000881F991F4A95D1F708958F929F92AF92F8
:1002D000BF92CF92DF92EF92FF924B015C010E949E
:1002E00040016B017C010E9440016C197D098E095F
:1002F0009F09683E734081059105A8F321E0821AA9
:100300009108A108B10888EEC80E83E0D81EE11C50
:10031000F11C81149104A104B10429F7FF90EF901E
:10032000DF90CF90BF90AF909F908F900895AF9245
:10033000BF92CF92DF92EF92FF920F931F93CF93D2
:10034000DF936C017B018B01040F151FEB015E0134
:10035000AE18BF08C017D10759F06991D601ED91C9
:10036000FC910190F081E02DC6010995892B79F768
:10037000C501DF91CF911F910F91FF90EF90DF901A
:10038000CF90BF90AF900895FC01538D448D252FE1
:1003900030E0842F90E0821B930B541710F0CF961F
:1003A000089501970895FC01918D828D981761F051
:1003B000A28DAE0FBF2FB11D5D968C91928D9F5F68
:1003C0009F73928F90E008958FEF9FEF0895FC0147
:1003D000918D828D981731F0828DE80FF11D858DFA
:1003E00090E008958FEF9FEF0895FC01918D228D8D
:1003F000892F90E0805C9F4F821B91098F73992712
:10040000089586E191E00E94F50121E0892B09F42D
:1004100020E0822F089580E090E0892B29F00E944F
:10042000010281110C9400000895FC01A48DA80F15
:10043000B92FB11DA35ABF4F2C91848D90E0019626
:100440008F739927848FA689B7892C93A089B18946
:100450008C91837080648C93938D848D981306C0E7
:100460000288F389E02D80818F7D80830895EF924B
:10047000FF920F931F93CF93DF93EC0181E0888F5E
:100480009B8D8C8D98131AC0E889F989808185FF2E
:1004900015C09FB7F894EE89FF896083E889F989D0
:1004A00080818370806480839FBF81E090E0DF91D2
:1004B000CF911F910F91FF90EF900895F62E0B8D25
:1004C00010E00F5F1F4F0F731127E02E8C8D8E11E0
:1004D0000CC00FB607FCFACFE889F989808185FF47
:1004E000F5CFCE010E941502F1CFEB8DEC0FFD2F61
:1004F000F11DE35AFF4FF0829FB7F8940B8FEA8902
:10050000FB8980818062CFCFCF93DF93EC01888D10
:100510008823B9F0AA89BB89E889F9898C9185FD7E
:1005200003C0808186FD0DC00FB607FCF7CF8C910C
:1005300085FFF2CF808185FFEDCFCE010E941502AD
:10054000E9CFDF91CF9108951F920F920FB60F92CE
:1005500011242F933F938F939F93AF93BF938091D9
:10056000B4019091B501A091B601B091B70130915D
:10057000B30123E0230F2D3758F50196A11DB11DBE
:100580002093B3018093B4019093B501A093B60179
:10059000B093B7018091B8019091B901A091BA01CF
:1005A000B091BB010196A11DB11D8093B80190933C
:1005B000B901A093BA01B093BB01BF91AF919F91D4
:1005C0008F913F912F910F900FBE0F901F90189514
:1005D00026E8230F0296A11DB11DD2CF1F920F92C4
:1005E0000FB60F9211242F933F934F935F936F9306
:1005F0007F938F939F93AF93BF93EF93FF9386E186
:1006000091E00E941502FF91EF91BF91AF919F91F0
:100610008F917F916F915F914F913F912F910F90AB
:100620000FBE0F901F9018951F920F920FB60F924A
:1006300011242F938F939F93EF93FF93E0912601C3
:10064000F09127018081E0912C01F0912D0182FD34
:100650001BC0908180912F018F5F8F73209130019B
:10066000821741F0E0912F01F0E0EA5EFE4F958F96
:1006700080932F01FF91EF919F918F912F910F9078
:100680000FBE0F901F9018958081F4CF789484B599
:10069000826084BD84B5816084BD85B5826085BD7E
:1006A00085B5816085BD80916E00816080936E000C
:1006B00010928100809181008260809381008091FE
:1006C00081008160809381008091800081608093AF
:1006D00080008091B10084608093B1008091B0006F
:1006E00081608093B00080917A00846080937A006A
:1006F00080917A00826080937A0080917A00816094
:1007000080937A0080917A00806880937A001092BA
:10071000C1000E948700E0912601F091270182E04C
:100720008083E0912201F09123011082E091240165
:10073000F09125018FEC808310922E01E0912A0127
:10074000F0912B0186E08083E0912801F09129014E
:10075000808180618083E0912801F091290180816E
:1007600088608083E0912801F09129018081806870
:100770008083E0912801F091290180818F7D808321
:1007800005E010E0CFEFD0E0CE010E94EB006CE37B
:1007900070E080E090E00E9465012597CB3F8FEFED
:1007A000D80791F7D0E0C0E0CE010E94EB0063E0F3
:1007B00070E080E090E00E9465012596C43081E001
:1007C000D80791F701501109E9F6C5E0D0E081E0C2
:1007D0000E94A30064EF71E080E090E00E94650158
:1007E00080E00E94A30064EF71E080E090E00E944E
:1007F0006501219761F742E050E062E171E086E136
:1008000091E00E94970105E010E0D0E0C0E0CE0149
:100810000E94EB006EE170E080E090E00E946501D4
:100820002596C43081E0D80791F7CFEFD0E0CE0114
:100830000E94EB006EE170E080E090E00E946501B4
:100840002597CB3F8FEFD80791F701501109E9F6B3
:1008500097CFE6E1F1E01382128288EE93E0A0E008
:10086000B0E084839583A683B78384E091E091838D
:10087000808385EC90E09587848784EC90E097876F
:10088000868780EC90E0918B808B81EC90E0938B5D
:10089000828B82EC90E0958B848B86EC90E0978B3A
:1008A000868B118E128E138E148E0895EE0FFF1FFD
:0C08B0000590F491E02D0994F894FFCF1E
:1008BC000000000037029701C4018402F501D30146
:0608CC00E7010D0A000027
:00000001FF
